{
  "contractName": "Token",
  "abi": [
    {
      "constant": true,
      "inputs": [],
      "name": "name",
      "outputs": [
        {
          "name": "",
          "type": "string"
        }
      ],
      "payable": false,
      "stateMutability": "view",
      "type": "function"
    },
    {
      "constant": true,
      "inputs": [],
      "name": "totalSupply",
      "outputs": [
        {
          "name": "",
          "type": "uint256"
        }
      ],
      "payable": false,
      "stateMutability": "view",
      "type": "function"
    },
    {
      "constant": true,
      "inputs": [],
      "name": "decimals",
      "outputs": [
        {
          "name": "",
          "type": "uint8"
        }
      ],
      "payable": false,
      "stateMutability": "view",
      "type": "function"
    },
    {
      "constant": true,
      "inputs": [
        {
          "name": "",
          "type": "address"
        }
      ],
      "name": "_balances",
      "outputs": [
        {
          "name": "",
          "type": "uint256"
        }
      ],
      "payable": false,
      "stateMutability": "view",
      "type": "function"
    },
    {
      "constant": true,
      "inputs": [],
      "name": "owner",
      "outputs": [
        {
          "name": "",
          "type": "address"
        }
      ],
      "payable": false,
      "stateMutability": "view",
      "type": "function"
    },
    {
      "constant": true,
      "inputs": [],
      "name": "symbol",
      "outputs": [
        {
          "name": "",
          "type": "string"
        }
      ],
      "payable": false,
      "stateMutability": "view",
      "type": "function"
    },
    {
      "constant": true,
      "inputs": [],
      "name": "last_completed_token",
      "outputs": [
        {
          "name": "",
          "type": "uint256"
        }
      ],
      "payable": false,
      "stateMutability": "view",
      "type": "function"
    },
    {
      "constant": true,
      "inputs": [
        {
          "name": "",
          "type": "address"
        },
        {
          "name": "",
          "type": "address"
        }
      ],
      "name": "_allowance",
      "outputs": [
        {
          "name": "",
          "type": "uint256"
        }
      ],
      "payable": false,
      "stateMutability": "view",
      "type": "function"
    },
    {
      "inputs": [
        {
          "name": "tokenName",
          "type": "string"
        },
        {
          "name": "tokenSymbol",
          "type": "string"
        },
        {
          "name": "initSupply",
          "type": "uint256"
        }
      ],
      "payable": false,
      "stateMutability": "nonpayable",
      "type": "constructor"
    },
    {
      "anonymous": false,
      "inputs": [
        {
          "indexed": true,
          "name": "_from",
          "type": "address"
        },
        {
          "indexed": true,
          "name": "_to",
          "type": "address"
        },
        {
          "indexed": false,
          "name": "_value",
          "type": "uint256"
        }
      ],
      "name": "Transfer",
      "type": "event"
    },
    {
      "anonymous": false,
      "inputs": [
        {
          "indexed": true,
          "name": "_owner",
          "type": "address"
        },
        {
          "indexed": true,
          "name": "_spender",
          "type": "address"
        },
        {
          "indexed": false,
          "name": "_value",
          "type": "uint256"
        }
      ],
      "name": "Approval",
      "type": "event"
    },
    {
      "anonymous": false,
      "inputs": [
        {
          "indexed": true,
          "name": "_from",
          "type": "address"
        },
        {
          "indexed": false,
          "name": "_value",
          "type": "uint256"
        }
      ],
      "name": "Burn",
      "type": "event"
    },
    {
      "constant": false,
      "inputs": [
        {
          "name": "completed",
          "type": "uint256"
        }
      ],
      "name": "setCompleted",
      "outputs": [],
      "payable": false,
      "stateMutability": "nonpayable",
      "type": "function"
    },
    {
      "constant": false,
      "inputs": [
        {
          "name": "new_address",
          "type": "address"
        }
      ],
      "name": "upgrade",
      "outputs": [],
      "payable": false,
      "stateMutability": "nonpayable",
      "type": "function"
    },
    {
      "constant": true,
      "inputs": [
        {
          "name": "_owner",
          "type": "address"
        }
      ],
      "name": "balanceOf",
      "outputs": [
        {
          "name": "balance",
          "type": "uint256"
        }
      ],
      "payable": false,
      "stateMutability": "view",
      "type": "function"
    },
    {
      "constant": false,
      "inputs": [
        {
          "name": "_to",
          "type": "address"
        },
        {
          "name": "_value",
          "type": "uint256"
        }
      ],
      "name": "transfer",
      "outputs": [
        {
          "name": "success",
          "type": "bool"
        }
      ],
      "payable": false,
      "stateMutability": "nonpayable",
      "type": "function"
    },
    {
      "constant": false,
      "inputs": [
        {
          "name": "_from",
          "type": "address"
        },
        {
          "name": "_to",
          "type": "address"
        },
        {
          "name": "_value",
          "type": "uint256"
        }
      ],
      "name": "transferFrom",
      "outputs": [
        {
          "name": "",
          "type": "bool"
        }
      ],
      "payable": false,
      "stateMutability": "nonpayable",
      "type": "function"
    },
    {
      "constant": false,
      "inputs": [
        {
          "name": "_spender",
          "type": "address"
        },
        {
          "name": "_value",
          "type": "uint256"
        }
      ],
      "name": "approve",
      "outputs": [
        {
          "name": "success",
          "type": "bool"
        }
      ],
      "payable": false,
      "stateMutability": "nonpayable",
      "type": "function"
    },
    {
      "constant": true,
      "inputs": [
        {
          "name": "_owner",
          "type": "address"
        },
        {
          "name": "_spender",
          "type": "address"
        }
      ],
      "name": "allowance",
      "outputs": [
        {
          "name": "",
          "type": "uint256"
        }
      ],
      "payable": false,
      "stateMutability": "view",
      "type": "function"
    },
    {
      "constant": false,
      "inputs": [
        {
          "name": "_spender",
          "type": "address"
        },
        {
          "name": "_value",
          "type": "uint256"
        },
        {
          "name": "_extraData",
          "type": "bytes"
        }
      ],
      "name": "approveAndCall",
      "outputs": [
        {
          "name": "success",
          "type": "bool"
        }
      ],
      "payable": false,
      "stateMutability": "nonpayable",
      "type": "function"
    },
    {
      "constant": false,
      "inputs": [
        {
          "name": "_value",
          "type": "uint256"
        }
      ],
      "name": "burn",
      "outputs": [
        {
          "name": "success",
          "type": "bool"
        }
      ],
      "payable": false,
      "stateMutability": "nonpayable",
      "type": "function"
    },
    {
      "constant": false,
      "inputs": [
        {
          "name": "_from",
          "type": "address"
        },
        {
          "name": "_value",
          "type": "uint256"
        }
      ],
      "name": "burnFrom",
      "outputs": [
        {
          "name": "success",
          "type": "bool"
        }
      ],
      "payable": false,
      "stateMutability": "nonpayable",
      "type": "function"
    }
  ],
  "bytecode": "0x60806040523480156200001157600080fd5b50604051620018a2380380620018a2833981018060405260608110156200003757600080fd5b8101908080516401000000008111156200005057600080fd5b828101905060208101848111156200006757600080fd5b81518560018202830111640100000000821117156200008557600080fd5b50509291906020018051640100000000811115620000a257600080fd5b82810190506020810184811115620000b957600080fd5b8151856001820283011164010000000082111715620000d757600080fd5b505092919060200180519060200190929190505050336000806101000a81548173ffffffffffffffffffffffffffffffffffffffff021916908373ffffffffffffffffffffffffffffffffffffffff16021790555082600290805190602001906200014492919062000177565b5081600390805190602001906200015d92919062000177565b50601260ff16600a0a810260048190555050505062000226565b828054600181600116156101000203166002900490600052602060002090601f016020900481019282601f10620001ba57805160ff1916838001178555620001eb565b82800160010185558215620001eb579182015b82811115620001ea578251825591602001919060010190620001cd565b5b509050620001fa9190620001fe565b5090565b6200022391905b808211156200021f57600081600090555060010162000205565b5090565b90565b61166c80620002366000396000f3fe6080604052600436106100fc576000357c0100000000000000000000000000000000000000000000000000000000900463ffffffff16806306fdde03146101015780630900f01014610191578063095ea7b3146101e257806318160ddd1461025557806323b872dd14610280578063313ce5671461031357806342966c68146103445780636ebcf6071461039757806370a08231146103fc57806379cc6790146104615780638da5cb5b146104d457806395d89b411461052b578063a9059cbb146105bb578063cae9ca511461062e578063dc55ddd514610738578063dd336c1214610763578063dd62ed3e146107e8578063fdacd5761461086d575b600080fd5b34801561010d57600080fd5b506101166108a8565b6040518080602001828103825283818151815260200191508051906020019080838360005b8381101561015657808201518184015260208101905061013b565b50505050905090810190601f1680156101835780820380516001836020036101000a031916815260200191505b509250505060405180910390f35b34801561019d57600080fd5b506101e0600480360360208110156101b457600080fd5b81019080803573ffffffffffffffffffffffffffffffffffffffff169060200190929190505050610946565b005b3480156101ee57600080fd5b5061023b6004803603604081101561020557600080fd5b81019080803573ffffffffffffffffffffffffffffffffffffffff16906020019092919080359060200190929190505050610a2e565b604051808215151515815260200191505060405180910390f35b34801561026157600080fd5b5061026a610b20565b6040518082815260200191505060405180910390f35b34801561028c57600080fd5b506102f9600480360360608110156102a357600080fd5b81019080803573ffffffffffffffffffffffffffffffffffffffff169060200190929190803573ffffffffffffffffffffffffffffffffffffffff16906020019092919080359060200190929190505050610b26565b604051808215151515815260200191505060405180910390f35b34801561031f57600080fd5b50610328610dcb565b604051808260ff1660ff16815260200191505060405180910390f35b34801561035057600080fd5b5061037d6004803603602081101561036757600080fd5b8101908080359060200190929190505050610dd0565b604051808215151515815260200191505060405180910390f35b3480156103a357600080fd5b506103e6600480360360208110156103ba57600080fd5b81019080803573ffffffffffffffffffffffffffffffffffffffff169060200190929190505050610ed4565b6040518082815260200191505060405180910390f35b34801561040857600080fd5b5061044b6004803603602081101561041f57600080fd5b81019080803573ffffffffffffffffffffffffffffffffffffffff169060200190929190505050610eec565b6040518082815260200191505060405180910390f35b34801561046d57600080fd5b506104ba6004803603604081101561048457600080fd5b81019080803573ffffffffffffffffffffffffffffffffffffffff16906020019092919080359060200190929190505050610f35565b604051808215151515815260200191505060405180910390f35b3480156104e057600080fd5b506104e961114f565b604051808273ffffffffffffffffffffffffffffffffffffffff1673ffffffffffffffffffffffffffffffffffffffff16815260200191505060405180910390f35b34801561053757600080fd5b50610540611174565b6040518080602001828103825283818151815260200191508051906020019080838360005b83811015610580578082015181840152602081019050610565565b50505050905090810190601f1680156105ad5780820380516001836020036101000a031916815260200191505b509250505060405180910390f35b3480156105c757600080fd5b50610614600480360360408110156105de57600080fd5b81019080803573ffffffffffffffffffffffffffffffffffffffff16906020019092919080359060200190929190505050611212565b604051808215151515815260200191505060405180910390f35b34801561063a57600080fd5b5061071e6004803603606081101561065157600080fd5b81019080803573ffffffffffffffffffffffffffffffffffffffff169060200190929190803590602001909291908035906020019064010000000081111561069857600080fd5b8201836020820111156106aa57600080fd5b803590602001918460018302840111640100000000831117156106cc57600080fd5b91908080601f016020809104026020016040519081016040528093929190818152602001838380828437600081840152601f19601f8201169050808301925050505050505091929192905050506113a6565b604051808215151515815260200191505060405180910390f35b34801561074457600080fd5b5061074d61152e565b6040518082815260200191505060405180910390f35b34801561076f57600080fd5b506107d26004803603604081101561078657600080fd5b81019080803573ffffffffffffffffffffffffffffffffffffffff169060200190929190803573ffffffffffffffffffffffffffffffffffffffff169060200190929190505050611534565b6040518082815260200191505060405180910390f35b3480156107f457600080fd5b506108576004803603604081101561080b57600080fd5b81019080803573ffffffffffffffffffffffffffffffffffffffff169060200190929190803573ffffffffffffffffffffffffffffffffffffffff169060200190929190505050611559565b6040518082815260200191505060405180910390f35b34801561087957600080fd5b506108a66004803603602081101561089057600080fd5b81019080803590602001909291905050506115e0565b005b60028054600181600116156101000203166002900480601f01602080910402602001604051908101604052809291908181526020018280546001816001161561010002031660029004801561093e5780601f106109135761010080835404028352916020019161093e565b820191906000526020600020905b81548152906001019060200180831161092157829003601f168201915b505050505081565b6000809054906101000a900473ffffffffffffffffffffffffffffffffffffffff1673ffffffffffffffffffffffffffffffffffffffff163373ffffffffffffffffffffffffffffffffffffffff161415610a2b5760008190508073ffffffffffffffffffffffffffffffffffffffff1663fdacd5766001546040518263ffffffff167c010000000000000000000000000000000000000000000000000000000002815260040180828152602001915050600060405180830381600087803b158015610a1157600080fd5b505af1158015610a25573d6000803e3d6000fd5b50505050505b50565b600081600660003373ffffffffffffffffffffffffffffffffffffffff1673ffffffffffffffffffffffffffffffffffffffff16815260200190815260200160002060008573ffffffffffffffffffffffffffffffffffffffff1673ffffffffffffffffffffffffffffffffffffffff168152602001908152602001600020819055508273ffffffffffffffffffffffffffffffffffffffff163373ffffffffffffffffffffffffffffffffffffffff167f8c5be1e5ebec7d5bd14f71427d1e84f3dd0314c0f7b2291e5b200ac8c7c3b925846040518082815260200191505060405180910390a36001905092915050565b60045481565b6000600560008573ffffffffffffffffffffffffffffffffffffffff1673ffffffffffffffffffffffffffffffffffffffff1681526020019081526020016000205482101515610b7557600080fd5b600660008573ffffffffffffffffffffffffffffffffffffffff1673ffffffffffffffffffffffffffffffffffffffff16815260200190815260200160002060003373ffffffffffffffffffffffffffffffffffffffff1673ffffffffffffffffffffffffffffffffffffffff1681526020019081526020016000205482101515610bff57600080fd5b600073ffffffffffffffffffffffffffffffffffffffff168373ffffffffffffffffffffffffffffffffffffffff1614151515610c3b57600080fd5b81600560008673ffffffffffffffffffffffffffffffffffffffff1673ffffffffffffffffffffffffffffffffffffffff1681526020019081526020016000206000828254039250508190555081600560008573ffffffffffffffffffffffffffffffffffffffff1673ffffffffffffffffffffffffffffffffffffffff1681526020019081526020016000206000828254019250508190555081600660008673ffffffffffffffffffffffffffffffffffffffff1673ffffffffffffffffffffffffffffffffffffffff16815260200190815260200160002060003373ffffffffffffffffffffffffffffffffffffffff1673ffffffffffffffffffffffffffffffffffffffff168152602001908152602001600020600082825403925050819055508273ffffffffffffffffffffffffffffffffffffffff168473ffffffffffffffffffffffffffffffffffffffff167fddf252ad1be2c89b69c2b068fc378daa952ba7f163c4a11628f55a4df523b3ef846040518082815260200191505060405180910390a39392505050565b601281565b600081600560003373ffffffffffffffffffffffffffffffffffffffff1673ffffffffffffffffffffffffffffffffffffffff1681526020019081526020016000205410151515610e2057600080fd5b81600560003373ffffffffffffffffffffffffffffffffffffffff1673ffffffffffffffffffffffffffffffffffffffff16815260200190815260200160002060008282540392505081905550816004600082825403925050819055503373ffffffffffffffffffffffffffffffffffffffff167fcc16f5dbb4873280815c1ee09dbd06736cffcc184412cf7a71a0fdb75d397ca5836040518082815260200191505060405180910390a260019050919050565b60056020528060005260406000206000915090505481565b6000600560008373ffffffffffffffffffffffffffffffffffffffff1673ffffffffffffffffffffffffffffffffffffffff168152602001908152602001600020549050919050565b600081600560008573ffffffffffffffffffffffffffffffffffffffff1673ffffffffffffffffffffffffffffffffffffffff1681526020019081526020016000205410151515610f8557600080fd5b600660008473ffffffffffffffffffffffffffffffffffffffff1673ffffffffffffffffffffffffffffffffffffffff16815260200190815260200160002060003373ffffffffffffffffffffffffffffffffffffffff1673ffffffffffffffffffffffffffffffffffffffff16815260200190815260200160002054821115151561101057600080fd5b81600560008573ffffffffffffffffffffffffffffffffffffffff1673ffffffffffffffffffffffffffffffffffffffff1681526020019081526020016000206000828254039250508190555081600660008573ffffffffffffffffffffffffffffffffffffffff1673ffffffffffffffffffffffffffffffffffffffff16815260200190815260200160002060003373ffffffffffffffffffffffffffffffffffffffff1673ffffffffffffffffffffffffffffffffffffffff16815260200190815260200160002060008282540392505081905550816004600082825403925050819055508273ffffffffffffffffffffffffffffffffffffffff167fcc16f5dbb4873280815c1ee09dbd06736cffcc184412cf7a71a0fdb75d397ca5836040518082815260200191505060405180910390a26001905092915050565b6000809054906101000a900473ffffffffffffffffffffffffffffffffffffffff1681565b60038054600181600116156101000203166002900480601f01602080910402602001604051908101604052809291908181526020018280546001816001161561010002031660029004801561120a5780601f106111df5761010080835404028352916020019161120a565b820191906000526020600020905b8154815290600101906020018083116111ed57829003601f168201915b505050505081565b60008073ffffffffffffffffffffffffffffffffffffffff168373ffffffffffffffffffffffffffffffffffffffff161415151561124f57600080fd5b81600560003373ffffffffffffffffffffffffffffffffffffffff1673ffffffffffffffffffffffffffffffffffffffff168152602001908152602001600020541015151561129d57600080fd5b81600560003373ffffffffffffffffffffffffffffffffffffffff1673ffffffffffffffffffffffffffffffffffffffff1681526020019081526020016000206000828254039250508190555081600560008573ffffffffffffffffffffffffffffffffffffffff1673ffffffffffffffffffffffffffffffffffffffff168152602001908152602001600020600082825401925050819055508273ffffffffffffffffffffffffffffffffffffffff163373ffffffffffffffffffffffffffffffffffffffff167fddf252ad1be2c89b69c2b068fc378daa952ba7f163c4a11628f55a4df523b3ef846040518082815260200191505060405180910390a36001905092915050565b6000808490506113b68585610a2e565b15611521578073ffffffffffffffffffffffffffffffffffffffff16638f4ffcb1338630876040518563ffffffff167c0100000000000000000000000000000000000000000000000000000000028152600401808573ffffffffffffffffffffffffffffffffffffffff1673ffffffffffffffffffffffffffffffffffffffff1681526020018481526020018373ffffffffffffffffffffffffffffffffffffffff1673ffffffffffffffffffffffffffffffffffffffff16815260200180602001828103825283818151815260200191508051906020019080838360005b838110156114b0578082015181840152602081019050611495565b50505050905090810190601f1680156114dd5780820380516001836020036101000a031916815260200191505b5095505050505050600060405180830381600087803b1580156114ff57600080fd5b505af1158015611513573d6000803e3d6000fd5b505050506001915050611527565b60009150505b9392505050565b60015481565b6006602052816000526040600020602052806000526040600020600091509150505481565b6000600660008473ffffffffffffffffffffffffffffffffffffffff1673ffffffffffffffffffffffffffffffffffffffff16815260200190815260200160002060008373ffffffffffffffffffffffffffffffffffffffff1673ffffffffffffffffffffffffffffffffffffffff16815260200190815260200160002054905092915050565b6000809054906101000a900473ffffffffffffffffffffffffffffffffffffffff1673ffffffffffffffffffffffffffffffffffffffff163373ffffffffffffffffffffffffffffffffffffffff16141561163d57806001819055505b5056fea165627a7a723058200412d27ed9d2e2e7e67db105ca8b497f573058d4b3925cd84afeb310b3bea1e10029",
  "source": "pragma solidity >=0.4.21 <0.6.0;\n\ninterface tokenRecipient {\n  function receiveApproval(address _from, uint256 _value, address _token, bytes calldata _extraData) external;\n}\n\ncontract Token {\n  address public owner;\n  uint public last_completed_token;\n\n  string public name;\n  string public symbol;\n  uint8 constant public decimals = 18;\n  uint256 public totalSupply;\n\n  mapping (address => uint256) public _balances;\n  mapping (address => mapping(address => uint256)) public _allowance;\n\n  constructor(string memory tokenName, string memory tokenSymbol, uint256 initSupply) public {\n    owner = msg.sender;\n    name = tokenName;\n    symbol = tokenSymbol;\n    totalSupply = initSupply * 10**uint256(decimals);\n  }\n\n  modifier restricted() {\n    if (msg.sender == owner) _;\n  }\n\n  function setCompleted(uint completed) public restricted {\n    last_completed_token = completed;\n  }\n\n  function upgrade(address new_address) public restricted {\n    Token upgraded = Token(new_address);\n    upgraded.setCompleted(last_completed_token);\n  }\n\n  event Transfer(address indexed _from, address indexed _to, uint256 _value);\n  event Approval(address indexed _owner, address indexed _spender, uint256 _value);\n  event Burn(address indexed _from, uint256 _value);\n\n  function balanceOf(address _owner) public view returns (uint256 balance) {\n    return _balances[_owner];\n  }\n  function transfer(address _to, uint256 _value) public returns (bool success){\n    require(_to != address (0x0));\n    require(_balances[msg.sender] >= _value);\n\n    _balances[msg.sender] -= _value;\n    _balances[_to] += _value;\n\n    emit Transfer(msg.sender, _to, _value);\n\n    return true;\n  }\n  function transferFrom(address _from, address _to, uint256 _value) public returns (bool) {\n    require(_value < _balances[_from]);\n    require(_value < _allowance[_from][msg.sender]);\n    require(_to != address (0x0));\n\n    _balances[_from] -= _value;\n    _balances[_to] += _value;\n    _allowance[_from][msg.sender] -= _value;\n\n    emit Transfer(_from, _to, _value);\n\n\n  }\n  function approve(address _spender, uint256 _value) public returns (bool success) {\n    _allowance[msg.sender][_spender] = _value;\n    emit Approval(msg.sender, _spender, _value);\n    return true;\n  }\n  function allowance(address _owner, address _spender) public view returns (uint256) {\n    return _allowance[_owner][_spender];\n  }\n\n  function approveAndCall(address _spender, uint256 _value, bytes memory _extraData) public returns (bool success) {\n    tokenRecipient spender = tokenRecipient(_spender);\n    if (approve(_spender, _value)) {\n      spender.receiveApproval(msg.sender, _value, address(this), _extraData);\n      return true;\n    }\n    return false;\n  }\n  function burn(uint256 _value) public returns (bool success) {\n    require(_balances[msg.sender] >= _value);\n\n    _balances[msg.sender] -= _value;\n    totalSupply -= _value;\n\n    emit Burn(msg.sender, _value);\n\n    return true;\n  }\n  function burnFrom(address _from, uint256 _value) public returns (bool success) {\n    require(_balances[_from] >= _value);\n    require(_value <= _allowance[_from][msg.sender]);\n\n    _balances[_from] -= _value;\n    _allowance[_from][msg.sender] -= _value;\n    totalSupply -= _value;\n\n    emit Burn(_from, _value);\n\n    return true;\n  }\n}\n",
  "sourcePath": "/home/plainchant/go/src/github.com/eager7/eth_contract/token_erc20/contracts/Migrations.sol",
  "compiler": {
    "name": "solc",
    "version": "0.5.0+commit.1d4f565a.Emscripten.clang"
  },
  "schemaVersion": "3.0.5",
  "updatedAt": "2019-03-22T10:32:59.272Z",
  "devdoc": {
    "methods": {}
  },
  "userdoc": {
    "methods": {}
  }
}